:100000000C9463000C948B000C948B000C948B006C
:100010000C948B000C948B000C948B000C948B0034
:100020000C948B000C948B000C948B000C948B0024
:100030000C948B000C948B000C948B000C948B0014
:100040000C94D4000C948B000C94B1010C948B0094
:100050000C948B000C948B000C948B000C948B00F4
:100060000C948B000C948B000000000024002700EF
:100070002A0000000000250028002B0000000000DE
:1000800023002600290004040404040404040202DA
:100090000202020203030303030301020408102007
:1000A0004080010204081020010204081020000012
:1000B0000007000201000003040600000000000029
:1000C00000008D00360311241FBECFEFD8E0DEBF45
:1000D000CDBF11E0A0E0B1E0E8EBF8E002C0059090
:1000E0000D92A831B107D9F711E0A8E1B1E001C044
:1000F0001D92A13CB107E1F710E0C6ECD0E004C0CE
:100100002297FE010E945604C23CD107C9F70E9403
:10011000CD000C945A040C9400000E941C016093C2
:10012000190170931A0180931B0190931C01609335
:100130001D0170931E0180931F019093200108956B
:100140008EEA91E00E94E702882399F08EEA91E01E
:100150000E94FB0280931801843631F480910B01D8
:1001600061E00E946401089580910B0160E00E94AB
:10017000640108950F931F930EEA11E0C80140E057
:1001800051EE60E070E00E94EE01C80160E071E0B5
:100190000E94C6031F910F9108950E942A010E9498
:1001A000BA000E94A000FDCF1F920F920FB60F92CF
:1001B00011242F933F938F939F93AF93BF9380917D
:1001C000250190912601A0912701B091280130913D
:1001D00029010196A11DB11D232F2D5F2D3720F080
:1001E0002D570196A11DB11D209329018093250152
:1001F00090932601A0932701B093280180912101BB
:1002000090912201A0912301B09124010196A11D9A
:10021000B11D8093210190932201A0932301B093FB
:100220002401BF91AF919F918F913F912F910F909A
:100230000FBE0F901F9018958FB7F894209125014D
:100240003091260140912701509128018FBFB901BB
:10025000CA010895789484B5826084BD84B58160B4
:1002600084BD85B5826085BD85B5816085BDEEE6BE
:10027000F0E0808181608083E1E8F0E0808182604D
:100280008083808181608083E0E8F0E0808181600C
:100290008083E1EBF0E0808184608083E0EBF0E03C
:1002A000808181608083EAE7F0E0808184608083E0
:1002B000808182608083808181608083808180688A
:1002C00080831092C1000895482F50E0CA018255E2
:1002D0009F4FFC012491CA0186569F4FFC019491C7
:1002E0004A575F4FFA0134913323D1F1222331F180
:1002F000233021F4809180008F7705C0243031F4C1
:10030000809180008F7D8093800018C0213019F487
:1003100084B58F7704C0223021F484B58F7D84BDED
:100320000DC0263021F48091B0008F7705C02730B2
:1003300029F48091B0008F7D8093B000E32FF0E02E
:10034000EE0FFF1FEE58FF4FA591B491662329F4DD
:100350008C91909589238C9308958C91892B8C9303
:1003600008951F920F920FB60F9211242F933F936F
:100370004F935F936F937F938F939F93AF93BF93AD
:10038000EF93FF934091C600E091AA01F091AB0179
:10039000CF01019660E870E00E94F0039C0180911B
:1003A000AC019091AD012817390739F0E65DFE4F99
:1003B00040833093AB012093AA01FF91EF91BF914D
:1003C000AF919F918F917F916F915F914F913F91ED
:1003D0002F910F900FBE0F901F9018955F926F9204
:1003E0007F928F929F92AF92BF92CF92DF92EF92C5
:1003F000FF920F931F93CF93DF93EC013A014B01D0
:10040000413482E458078FE0680780E078070CF0F9
:100410007FC060E874E88EE190E0A40193010E943F
:1004200025042150304040405040CA01B90122E02B
:1004300030E040E050E00E94250459016A01A60125
:100440009501209530954095509594E0220F331FEB
:10045000441F551F9A95D1F760E074E284EF90E055
:100460000E942504CA01B9012FEF30E040E050E0BE
:100470000E94D103A40193010E942504C901815067
:100480009F4F181619061CF4522E5A9403C0552477
:100490005394521A60E079E08DE390E0A401930157
:1004A0000E9425042150304040405040CA01B9010B
:1004B00022E030E040E050E00E9425042095309595
:1004C0004095509583E0220F331F441F551F8A9596
:1004D000D1F760E074E284EF90E00E942504CA0145
:1004E000B9012FEF30E040E050E00E94D103A401B9
:1004F00093010E942504C90181509F4F18161906C7
:100500001CF4822F815002C081E0821B851500F50A
:10051000E885F98581E090E00A8802C0880F991F7C
:100520000A94E2F7808360E079E08DE390E0A40133
:1005300093010E9425042150304040405040CA01A0
:10054000B90122E030E040E050E00E94250404C000
:10055000E885F98510829501EC81FD813083EE817B
:10056000FF812083EA85FB85208141E050E0CA01BC
:100570000E8402C0880F991F0A94E2F7282B20836B
:10058000EA85FB852081CA010F8402C0880F991F6C
:100590000A94E2F7282B2083EA85FB85808108886E
:1005A00002C0440F551F0A94E2F7842B8083DF9129
:1005B000CF911F910F91FF90EF90DF90CF90BF9060
:1005C000AF909F908F907F906F905F900895DC0127
:1005D0001296ED91FC911397E058FF4F8191919104
:1005E00080589F4F20813181821B930B60E870E01F
:1005F0000E94F0030895CF93DF93DC011296ED91F2
:10060000FC911397EF01CE57DF4F48815981E05895
:10061000FF4F80819181E058F0408417950719F4CD
:100620002FEF3FEF0CC0E40FF51F2081CA010196A8
:1006300060E870E00E94F0039983888330E0C9018C
:10064000DF91CF910895FC01A085B18521898C911E
:1006500090E0022E02C0959587950A94E2F780FFFC
:10066000F6CF0484F585E02D6083089581E191E063
:100670009093AF018093AE018AE291E09093B10133
:100680008093B00185EC90E09093B3018093B20128
:1006900084EC90E09093B5018093B40180EC90E0FD
:1006A0009093B7018093B60181EC90E09093B901EB
:1006B0008093B80186EC90E09093BB018093BA01DF
:1006C00084E08093BC0183E08093BD0187E0809348
:1006D000BE0185E08093BF0181E08093C001089551
:1006E0000F931F93CF93DF938C01EB0109C02196E9
:1006F000D801ED91FC910190F081E02DC8010995A0
:1007000068816623A1F7DF91CF911F910F91089522
:10071000EF92FF920F931F93CF93DF938C017B0196
:10072000EA010CC0D7016D917D01D801ED91FC91DA
:100730000190F081E02DC80109952197209791F74C
:10074000DF91CF911F910F91FF90EF900895DC0101
:10075000ED91FC910280F381E02D099508950F93AE
:100760001F938C01DC01ED91FC910190F081E02D53
:100770006DE00995D801ED91FC910190F081E02D9B
:10078000C8016AE009951F910F9108950F931F9377
:100790008C010E94A703C8010E94AF031F910F9113
:1007A0000895629FD001739FF001829FE00DF11DBB
:1007B000649FE00DF11D929FF00D839FF00D749FDB
:1007C000F00D659FF00D9927729FB00DE11DF91F87
:1007D000639FB00DE11DF91FBD01CF0111240895E4
:1007E00097FB092E07260AD077FD04D049D006D002
:1007F00000201AF4709561957F4F0895F6F7909553
:1008000081959F4F0895A1E21A2EAA1BBB1BFD01E3
:100810000DC0AA1FBB1FEE1FFF1FA217B307E407DF
:10082000F50720F0A21BB30BE40BF50B661F771F37
:10083000881F991F1A9469F7609570958095909517
:100840009B01AC01BD01CF01089597FB092E052640
:100850000ED057FD04D0D7DF0AD0001C38F45095D5
:100860004095309521953F4F4F4F5F4F0895F6F7D4
:1008700090958095709561957F4F8F4F9F4F08950C
:10088000AA1BBB1B51E107C0AA1FBB1FA617B707B6
:1008900010F0A61BB70B881F991F5A95A9F78095D2
:1008A0009095BC01CD010895EE0FFF1F0590F491C6
:0808B000E02D0994F894FFCF3C
:1008B800537461727465642E2E2E000D00000000C2
:0808C800002303700388030004
:00000001FF
